:1000000070590020657100008F30010051710000AF
:1000100051710000517100005171000051710000D8
:1000200000000000000000000000000085720000D9
:100030005171000000000000457200005171000085
:100040001D7400001D7400001D7400001D7400006C
:100050001D7400001D7400001D7400001D7400005C
:100060001D7400001D7400001D7400001D7400004C
:100070001D7400001D7400001D7400001D7400003C
:100080001D7400001D7400001D7400001D7400002C
:100090001D7400001D7400001D7400001D7400001C
:1000A0001D7400001D7400001D7400001D7400000C
:1000B0001D7400001D7400001D7400001D740000FC
:1000C0001D7400001D7400001D7400001D740000EC
:1000D0001D7400001D7400001D7400001D740000DC
:1000E0001D7400001D7400001D7400001D740000CC
:1000F0001D7400001D7400001D7400001D740000BC
:100100001D7400001D7400001D7400001D740000AB
:100110001D7400001D7400001D7400001D7400009B
:100120001D7400001D7400001D7400001D7400008B
:100130001D7400001D7400001D7400001D7400007B
:100140001D7400001D7400001D7400001D7400006B
:040150001D7400001A
:04015400FFFFFFFFAB
:1001580081F0004102E000BF83F0004330B54FEA70
:1001680041044FEA430594EA050F08BF90EA020FDD
:100178001FBF54EA000C55EA020C7FEA645C7FEA70
:10018800655C00F0E2804FEA5454D4EB5555B8BF93
:100198006D420CDD2C4480EA020281EA030382EA04
:1001A800000083EA010180EA020281EA0303362D96
:1001B80088BF30BD11F0004F4FEA01314FF4801C69
:1001C8004CEA113102D0404261EB410113F0004F7B
:1001D8004FEA03334CEA133302D0524263EB430332
:1001E80094EA050F00F0A780A4F10104D5F1200ED0
:1001F8000DDB02FA0EFC22FA05F2801841F100012B
:1002080003FA0EF2801843FA05F359410EE0A5F1FE
:1002180020050EF1200E012A03FA0EFC28BF4CF02F
:10022800020C43FA05F3C01851EBE37101F00045E5
:1002380007D54FF0000EDCF1000C7EEB00006EEBF2
:100248000101B1F5801F1BD3B1F5001F0CD349087C
:100258005FEA30004FEA3C0C04F101044FEA4452D3
:1002680012F5800F80F09A80BCF1004F08BF5FEA5A
:10027800500C50F1000041EB045141EA050130BD3A
:100288005FEA4C0C404141EB0101013C28BFB1F54C
:10029800801FE9D291F0000F04BF01460020B1FA97
:1002A80081F308BF2033A3F10B03B3F120020CDA6A
:1002B8000C3208DD02F1140CC2F10C0201FA0CF048
:1002C80021FA02F10CE002F11402D8BFC2F1200CAD
:1002D80001FA02F120FA0CFCDCBF41EA0C01904063
:1002E800E41AA2BF01EB0451294330BD6FEA0404AC
:1002F8001F3C1CDA0C340EDC04F11404C4F1200297
:1003080020FA04F001FA02F340EA030021FA04F3A8
:1003180045EA030130BDC4F10C04C4F1200220FAFF
:1003280002F001FA04F340EA0300294630BD21FA3D
:1003380004F0294630BD94F0000F83F4801306BF03
:1003480081F480110134013D4EE77FEA645C18BFF7
:100358007FEA655C29D094EA050F08BF90EA020F8E
:1003680005D054EA000C04BF1946104630BD91EA86
:10037800030F1EBF0021002030BD5FEA545C05D189
:100388004000494128BF41F0004130BD14F58004C8
:100398003CBF01F5801130BD01F0004545F0FE413C
:1003A80041F470014FF0000030BD7FEA645C1ABF71
:1003B800194610467FEA655C1CBF0B46024650EAA8
:1003C800013406BF52EA033591EA030F41F40021D4
:1003D80030BD00BF90F0000F04BF0021704730B55A
:1003E8004FF4806404F132044FF000054FF000012F
:1003F80050E700BF90F0000F04BF0021704730B5F0
:100408004FF4806404F1320410F0004548BF4042C4
:100418004FF000013EE700BF42004FEAE2014FEA19
:1004280031014FEA02701FBF12F07F4393F07F4FF4
:1004380081F06051704732F07F4208BF704793F0F7
:100448007F4F04BF41F40021704730B54FF460740A
:1004580001F0004521F000411CE700BF50EA01020D
:1004680008BF704730B54FF000050AE050EA0102B6
:1004780008BF704730B511F0004502D5404261EB26
:1004880041014FF4806404F132045FEA915C3FF467
:10049800D8AE4FF003025FEADC0C18BF03325FEA04
:1004A800DC0C18BF033202EBDC02C2F1200300FAB5
:1004B80003FC20FA02F001FA03FE40EA0E0021FADA
:1004C80002F11444BDE600BF70B54FF0FF0C4CF4C8
:1004D800E06C1CEA11541DBF1CEA135594EA0C0F7A
:1004E80095EA0C0F00F0DEF82C4481EA030621EAB5
:1004F8004C5123EA4C5350EA013518BF52EA0335F0
:1005080041F4801143F4801338D0A0FB02CE4FF0A1
:100518000005E1FB02E506F00042E0FB03E54FF0D1
:100528000006E1FB03569CF0000F18BF4EF0010EC9
:10053800A4F1FF04B6F5007F64F5407404D25FEAC5
:100548004E0E6D4146EB060642EAC62141EA555178
:100558004FEAC52040EA5E504FEACE2EB4F1FD0CBA
:1005680088BFBCF5E06F1ED8BEF1004F08BF5FEA38
:10057800500E50F1000041EB045170BD06F00046EA
:1005880046EA010140EA020081EA0301B4EB5C0497
:10059800C2BFD4EB0C0541EA045170BD41F480118F
:1005A8004FF0000E013C00F3AB8014F1360FDEBFB4
:1005B800002001F0004170BDC4F10004203C35DA90
:1005C8000C341BDC04F11404C4F1200500FA05F313
:1005D80020FA04F001FA05F240EA020001F00042B4
:1005E80021F0004110EBD37021FA04F642EB06012A
:1005F8005EEA430E08BF20EAD37070BDC4F10C0454
:10060800C4F1200500FA04F320FA05F001FA04F217
:1006180040EA020001F0004110EBD37041F1000103
:100628005EEA430E08BF20EAD37070BDC4F120050E
:1006380000FA05F24EEA020E20FA04F301FA05F276
:1006480043EA020321FA04F001F0004121FA04F21E
:1006580020EA020000EBD3705EEA430E08BF20EAEE
:10066800D37070BD94F0000F0FD101F00046400028
:1006780041EB010111F4801F08BF013CF7D041EAAA
:10068800060195F0000F18BF704703F000465200AE
:1006980043EB030313F4801F08BF013DF7D043EA7F
:1006A8000603704794EA0C0F0CEA135518BF95EA35
:1006B8000C0F0CD050EA410618BF52EA4306D1D1BC
:1006C80081EA030101F000414FF0000070BD50EADB
:1006D800410606BF1046194652EA430619D094EA65
:1006E8000C0F02D150EA013613D195EA0C0F05D14F
:1006F80052EA03361CBF104619460AD181EA0301A3
:1007080001F0004141F0FE4141F470014FF000005A
:1007180070BD41F0FE4141F4780170BD70B54FF0F5
:10072800FF0C4CF4E06C1CEA11541DBF1CEA135575
:1007380094EA0C0F95EA0C0F00F0A7F8A4EB050457
:1007480081EA030E52EA03354FEA013100F088804E
:100758004FEA03334FF0805545EA131343EA126317
:100768004FEA022245EA111545EA10654FEA0026CC
:100778000EF000419D4208BF964244F1FD0404F585
:10078800407402D25B084FEA3202B61A65EB0305E1
:100798005B084FEA32024FF480104FF4002CB6EB9E
:1007A800020E75EB030E22BFB61A754640EA0C001E
:1007B8005B084FEA3202B6EB020E75EB030E22BF5E
:1007C800B61A754640EA5C005B084FEA3202B6EB9F
:1007D800020E75EB030E22BFB61A754640EA9C005E
:1007E8005B084FEA3202B6EB020E75EB030E22BF2E
:1007F800B61A754640EADC0055EA060E18D04FEAEC
:10080800051545EA16754FEA06164FEAC30343EA8B
:1008180052734FEAC2025FEA1C1CC0D111F4801F58
:100828000BD141EA00014FF000004FF0004CB6E751
:1008380011F4801F04BF01430020B4F1FD0C88BFF0
:10084800BCF5E06F3FF6AFAEB5EB030C04BFB6EBFB
:10085800020C5FEA500C50F1000041EB045170BDEE
:100868000EF0004E4EEA113114EB5C04C2BFD4EB1B
:100878000C0541EA045170BD41F480114FF0000E9F
:10088800013C90E645EA060E8DE60CEA135594EA1B
:100898000C0F08BF95EA0C0F3FF43BAF94EA0C0F1E
:1008A8000AD150EA01347FF434AF95EA0C0F7FF493
:1008B80025AF104619462CE795EA0C0F06D152EAE7
:1008C80003353FF4FDAE1046194622E750EA4106CB
:1008D80018BF52EA43067FF4C5AE50EA41047FF4DC
:1008E8000DAF52EA43057FF4EBAE12E74A0011D28E
:1008F80012F5001211D20DD56FF47873B3EB625272
:100908000ED44FEAC12343F0004343EA505323FA7D
:1009180002F070474FF00000704750EA013002D1F2
:100928004FF0FF3070474FF00000704780F00040F4
:1009380002E000BF81F0004142001FBF5FEA4103AF
:1009480092EA030F7FEA226C7FEA236C6AD04FEAAF
:100958001262D2EB1363C1BFD218414048404140F4
:10096800B8BF5B42192B88BF704710F0004F40F4A6
:10097800000020F07F4018BF404211F0004F41F4C2
:10098800000121F07F4118BF494292EA030F3FD08E
:10099800A2F1010241FA03FC10EB0C00C3F12003A1
:1009A80001FA03F100F0004302D5494260EB400030
:1009B800B0F5000F13D3B0F1807F06D340084FEA9B
:1009C800310102F10102FE2A51D2B1F1004F40EB90
:1009D800C25008BF20F0010040EA030070474900F8
:1009E80040EB0000013A28BFB0F5000FEDD2B0FA95
:1009F80080FCACF1080CB2EB0C0200FA0CF0AABFB8
:100A080000EBC25052421843BCBFD0401843704755
:100A180092F0000F81F4000106BF80F4000001325B
:100A2800013BB5E74FEA41037FEA226C18BF7FEA32
:100A3800236C21D092EA030F04D092F0000F08BF74
:100A48000846704790EA010F1CBF0020704712F05B
:100A58007F4F04D1400028BF40F00040704712F19A
:100A680000723CBF00F50000704700F0004343F0FF
:100A7800FE4040F4000070477FEA226216BF084635
:100A88007FEA23630146420206BF5FEA412390EAF8
:100A9800010F40F4800070474FF0000304E000BFEE
:100AA80010F0004348BF40425FEA000C08BF70479F
:100AB80043F0964301464FF000001CE050EA010263
:100AC80008BF70474FF000030AE000BF50EA010278
:100AD80008BF704711F0004302D5404261EB410165
:100AE8005FEA010C02BF84460146002043F0B6438A
:100AF80008BFA3F18053A3F50003BCFA8CF2083AAF
:100B0800A3EBC25310DB01FA02FC634400FA02FCB7
:100B1800C2F12002BCF1004F20FA02F243EB0200BE
:100B280008BF20F00100704702F1200201FA02FC20
:100B3800C2F1200250EA4C0021FA02F243EB020013
:100B480008BF20EADC7070474FF0FF0C1CEAD05257
:100B58001EBF1CEAD15392EA0C0F93EA0C0F6FD018
:100B68001A4480EA010C400218BF5FEA41211ED0F6
:100B78004FF0006343EA501043EA5111A0FB0131E2
:100B88000CF00040B1F5000F3EBF490041EAD371B7
:100B98005B0040EA010062F17F02FD2A1DD8B3F133
:100BA800004F40EBC25008BF20F00100704790F0A2
:100BB800000F0CF0004C08BF49024CEA502040EAF4
:100BC80051207F3AC2BFD2F1FF0340EAC2507047BA
:100BD80040F400004FF00003013A5DDC12F1190FF8
:100BE800DCBF00F000407047C2F10002410021FA6A
:100BF80002F1C2F1200200FA02FC5FEA310040F182
:100C0800000053EA4C0308BF20EADC70704792F0FA
:100C1800000F00F0004C02BF400010F4000F013A32
:100C2800F9D040EA0C0093F0000F01F0004C02BF2D
:100C3800490011F4000F013BF9D041EA0C018FE79C
:100C48000CEAD15392EA0C0F18BF93EA0C0F0AD0A2
:100C580030F0004C18BF31F0004CD8D180EA0100C8
:100C680000F00040704790F0000F17BF90F0004F61
:100C7800084691F0000F91F0004F14D092EA0C0F43
:100C880001D142020FD193EA0C0F03D14B0218BFD6
:100C9800084608D180EA010000F0004040F0FE401C
:100CA80040F40000704740F0FE4040F440007047B8
:100CB8004FF0FF0C1CEAD0521EBF1CEAD15392EA37
:100CC8000C0F93EA0C0F69D0A2EB030280EA010C27
:100CD80049024FEA402037D04FF0805343EA1111C0
:100CE80043EA10130CF000408B4238BF5B0042F11E
:100CF8007D024FF4000C8B4224BF5B1A40EA0C00C3
:100D0800B3EB510F24BFA3EB510340EA5C00B3EBF4
:100D1800910F24BFA3EB910340EA9C00B3EBD10FE2
:100D280024BFA3EBD10340EADC001B0118BF5FEA34
:100D38001C1CE0D1FD2A3FF650AF8B4240EBC2505D
:100D480008BF20F0010070470CF0004C4CEA50201E
:100D58007F32C2BFD2F1FF0340EAC250704740F46D
:100D680000004FF00003013A37E792F0000F00F05F
:100D7800004C02BF400010F4000F013AF9D040EADD
:100D88000C0093F0000F01F0004C02BF490011F471
:100D9800000F013BF9D041EA0C0195E70CEAD15369
:100DA80092EA0C0F08D142027FF47DAF93EA0C0F50
:100DB8007FF470AF084676E793EA0C0F04D14B0234
:100DC8003FF44CAF08466EE730F0004C18BF31F0E6
:100DD800004CCAD130F000427FF45CAF31F00043E0
:100DE8007FF43CAF5FE700BF4FF0FF3C06E000BF79
:100DF8004FF0010C02E000BF4FF0010C4DF804CD9C
:100E08004FEA40024FEA41037FEA226C18BF7FEAAB
:100E1800236C11D001B052EA530C18BF90EA010FAD
:100E280058BFB2EB030088BFC81738BF6FEAE1703C
:100E380018BF40F0010070477FEA226C02D15FEAD8
:100E4800402C05D17FEA236CE4D15FEA412CE1D044
:100E58005DF8040B704700BF844608466146FFE70B
:100E68000FB5FFF7C9FF002848BF10F1000F0FBDED
:100E78004DF808EDFFF7F4FF0CBF012000205DF8E6
:100E880008FB00BF4DF808EDFFF7EAFF34BF01206B
:100E980000205DF808FB00BF4DF808EDFFF7E0FF04
:100EA80094BF012000205DF808FB00BF4DF808ED55
:100EB800FFF7D2FF94BF012000205DF808FB00BFB8
:100EC8004DF808EDFFF7C8FF34BF012000205DF89A
:100ED80008FB00BF4FEA4002B2F1FE4F0FD34FF0BC
:100EE8009E03B3EB12620DD94FEA002343F000438F
:100EF80010F0004F23FA02F018BF404270474FF03D
:100F08000000704712F1610F01D1420205D110F0C3
:100F1800004008BF6FF0004070474FF00000704776
:100F28007BB972B90029BEBF00204FF0004106E02E
:100F380008BF00281CBF6FF000414FF0FF3000F0E1
:100F480077B8ADF1080C6DE904CE002909DB002B58
:100F58001ADB00F082F8DDF804E0DDE9022304B0D2
:100F68007047404261EB4101002B1BDB00F075F834
:100F7800DDF804E0DDE9022304B0404261EB410101
:100F8800524263EB43037047524263EB430300F062
:100F980064F8DDF804E0DDE9022304B0404261EBC7
:100FA80041017047524263EB430300F056F8DDF805
:100FB80004E0DDE9022304B0524263EB43037047C7
:100FC80053B94AB9002908BF00281CBF4FF0FF31A8
:100FD8004FF0FF3000F02CB8ADF1080C6DE904CEED
:100FE80000F03BF8DDF804E0DDE9022304B07047C7
:100FF800D0B5FFF711FA00220B4B06460F46FFF754
:1010080063FAFFF773FC0446FFF7E4F90022074B85
:10101800FFF75AFA02460B4630463946FFF79CF866
:10102800FFF764FC2146D0BD0000F03D0000F04110
:10103800704700BF10B500210446FFF723FF20B911
:101048002046BDE81040FFF7D3BF04F10040FFF78A
:10105800CFFF404261EB410110BD2DE9F0478646C4
:101068008C460846089E154674461946002B40F0E3
:10107800C1808542B2FA82F245D94AB1C2F1200351
:1010880000FA02FC954094402EFA03F343EA0C0C54
:101098004FEA154EA8B2230CBCFBFEF80EFB18CC89
:1010A80008FB00F943EA0C43994528D9EB1808F1E5
:1010B800FF3704D2994502D9A8F102072B44A3EBC4
:1010C8000903A4B2B3FBFEFC0EFB1C330CFB00F0BF
:1010D80044EA0344A04214D92C190CF1FF3304D27A
:1010E800A04202D9ACF102032C44241A43EA074077
:1010F8001EB1D440002334607360BDE8F0874746D2
:10110800DDE76346F1E792BB431B01214FEA154E29
:10111800AFB2200CB3FBFEFC0EFB1C330CFB07F834
:1011280040EA0343984561D9EB180CF1FF3004D22B
:10113800984502D9ACF102002B44A3EB0803A4B2F2
:10114800B3FBFEFC0EFB1C330CFB07F744EA03441D
:10115800A7424DD92C190CF1FF3304D2A74202D96A
:10116800ACF102032C44E41B43EA0040C0E7C2F19F
:1011780020039540944020FA03F12EFA03F34FEA36
:10118800154E9040AFB20343B1FBFEFC0EFB1C10A2
:10119800190C0CFB07F841EA0041884522D9691867
:1011A8000CF1FF3004D2884502D9ACF10200294481
:1011B800A1EB08019BB2B1FBFEFC0EFB1C110CFB62
:1011C80007F743EA01439F420ED9EB180CF1FF31B0
:1011D80004D29F4202D9ACF102012B44DB1B41EA45
:1011E800004193E76046E3E76146F7E76046A4E716
:1011F8006346B8E7834206D916B9002108467CE75A
:10120800C6E900E0F9E7B3FA83F78FB9834201D35F
:10121800724508D8BEEB020460EB030301209C462C
:101228001EB9002169E73846FAE7C6E9004CF8E735
:10123800C7F1200CBB400EFA07F522FA0CF42EFA7F
:101248000CF1BA401C4320FA0CF3B8404FEA144999
:1012580001431FFA84FEB3FBF9F809FB18300B0CA5
:1012680008FB0EFA43EA00439A4540D9E31808F10F
:10127800FF3004D29A4502D9A8F102002344A3EB17
:101288000A0389B2B3FBF9F809FB183308FB0EFE11
:1012980041EA03418E452CD9611808F1FF3304D285
:1012A8008E4502D9A8F10203214443EA0040A1EB8C
:1012B8000E01A0FB02984145CE46434602D306D113
:1012C8004D4504D20138B9EB020E68EB0403002E39
:1012D800A7D0B5EB0E0261EB030101FA0CFC22FA70
:1012E80007F3F9404CEA0303C6E9003199E74046A1
:1012F800C5E74346D9E710F8012B11F8013B012A4D
:1013080028BF9A42F7D0D01A7047034611F8012B2C
:1013180003F8012B002AF9D17047034613F8012B73
:10132800002AFBD1181A013870470000000000009D
:101338002DE9F04706460F4690468AB013F09AFB0F
:101348004FF47A73A0FB034503FB0155E40B012F0F
:1013580044EA45444FEAD53508D108213046CDE95D
:101368000045294A11F048F8002013E0D8F8047025
:1013780026483946FFF7BFFF78B139462448FFF7BA
:10138800BAFF50B130463B460121224A11F034F8E9
:101398006FF004000AB0BDE8F087204618A3D3E92F
:1013A80000232946FFF7BCFD05460C4610461946A2
:1013B800194A0023FFF7B4FD80460F461046194628
:1013C8004EF660220023FFF7ABFD824689461046A1
:1013D80019464FF47A720023FFF7A2FDCDE904A95C
:1013E800CDE90601CDE9082308213046CDE9028779
:1013F800CDE90054094A10F0FFFFB5E7AFF30080CC
:10140800005C260500000000036B0100146B01005E
:10141800176B0100206B010080EE3600376B01006E
:1014280070B5144606460846FFF73AFB2146FFF713
:101438008BFBFFF7FFFD0EA3D3E900230A4D80FBCA
:10144800054520462946FFF76BFD0023074A306013
:1014580029462046FFF764FD0023044AFFF760FD94
:10146800726070BDAFF300803AA3950040420F0050
:101478000010A5D4E800000070B5144606460846DA
:10148800FFF70EFB2146FFF75FFB1349FFF710FC40
:10149800FFF7D0FD0CA3D3E90023104D80FB0545D1
:1014A80020462946FFF73CFD09A3D3E90023306015
:1014B80029462046FFF734FD0023094AFFF730FD8F
:1014C800726070BDAFF3008000209BF35E100000D7
:1014D80080A812010000000000002041D8EF2F0072
:1014E80040420F0000000000032970B504460D4675
:1014F80005D0072951D0BDE8704009F09FBD002AEA
:1015080038D0072A40F0A68058681A68584BC11787
:10151800C2FB0301012871F100033BDB554BC018E6
:1015280041F100014EA3D3E90023FFF7F9FC02289B
:1015380026690ED010280ED004280ED0082829D1EC
:101548002946204612F07AFA002808DA6FF00400DB
:1015580070BD0025F4E70125F2E70225F0E73D20FC
:10156800454B33F81510A1FB0001FFF7AFFAF06007
:101578000020EDE71988414B33F8020B814206D170
:101588002046D1B209F06CFD0028F1DADEE701321D
:101598000C2AF1D16FF01500DAE7002A4BD0072AA0
:1015A80058D15A681D68D11713460A463048C5FBFA
:1015B8000032B425A3FB0501012B05FB021172F1D2
:1015C800000228DB2E4BC01841F1000126A3D3E905
:1015D8000023FFF7A5FCFA2825D0B0F5FA7F24D020
:1015E800B0F57A7F23D0B0F5FA6F22D07D28D1D11B
:1015F800042529462046266912F030FA0028A5DB82
:1016080041F217101F4B33F81510A1FB0001FFF72B
:101618005DFAF061ACE71C4BC01861F1000112A340
:10162800D3E90023D5E70025E3E70125E1E7022513
:10163800DFE70325DDE71988104B33F8020B8142F9
:1016480004D12046D1B209F0DBFC9DE701320C2A17
:10165800F3D19FE76FF085007AE700BFAFF3008012
:101668003AA3950000000000D8EF2F00000000000A
:1016780040420F009DD14A007E6501008665010049
:10168800ECF71700746501001408E8FF000000007B
:101698002DE9F04F914689B0DFF8DCA098469DF817
:1016A80048303D2204460F4648465146059312F0FD
:1016B80040FBDFF8C8B0054610225946404612F0F4
:1016C80038FB00239D420646CDE9063308DA4B462F
:1016D8002B4A0121204610F08FFE09B0BDE8F08F9B
:1016E800002802DA4346274AF3E7A9B282B2BB6868
:1016F800D3F80480B8F1000F15D0384606ABC047C0
:10170800A0B110F1160F02D1059B002BE5D0019076
:101718005BF826300121009320465AF825301A4AF2
:1017280010F06AFED9E76FF05700F0E70798FEF768
:1017380061FE0FA3D3E90023FEF7F0FF8046069869
:101748008946FEF757FE02460B4640464946FEF7D5
:1017580005FDCDE902015BF82630022101935AF814
:101768002530204600933B68084A10F045FEB4E750
:101778000000000080842E41440300200403002060
:10178800B88B0100CE8B0100E68B0100138C0100A1
:101798002DE9F04F0028D3B01591119307DA0121F4
:1017A8003A4A586853B0BDE8F04F10F025BE119B77
:1017B800186883685B69002B38D1354B1F93002468
:1017C800344D354E354F1F9BDB680BB10C2C3DD18A
:1017D8000025AB46324B1293ABB2139300230A2D6C
:1017E800219347D840F27773EB40DB0700F175820D
:1017F800139A1F9BADF88020ADF882B05B682098E3
:1018080023AA22A99847002838D1229B802B40F28E
:1018180045818022CDE901321198CDF800B02B46E0
:101828000121204A406810F0E7FD27E01FA99847EA
:101838000028C4D0119B11981B6801211B681A4A03
:10184800406810F0D9FD53B0BDE8F08F1598A1B2EB
:10185800984768B10C236343EB581198002B08BFD5
:10186800334600933A4623460221406810F0C4FDEF
:101878000134A8E7ABB2253B022BB9D8129B01353E
:1018880004333C2D1293A7D1DDE700BF0E8E010073
:101898003C640100AC630100068E01003B8E010030
:1018A80044030020578E01001B8E0100382224A813
:1018B800219113F0B1FC139B23F00404A4B21F9BE5
:1018C800ADF882B09E68139B1598ADF8803032ABA6
:1018D80000932099012321AAB0470028DDF89880B9
:1018E80000F3ED80DDE92801DDE924794FEAE87AA3
:1018F80042465346FFF764FB0646DDE92A01534694
:101908004246FFF70DFB119B04465B681493F319DD
:10191800169349F100030F2D179300F05C8100F234
:101928003681139B23F00403032B02D00B2D40F0C8
:101938008581DDE92C010123CDE932799DF9C0705B
:101948004246ADF8D0305346CDE937648DF8D870AB
:10195800FFF7E6FA4246534639908146DDE92E0103
:10196800FFF7DEFA129BB04A1B6806461893AF4B86
:101978003A9012EA240238BF1A46002CB8BF6442D3
:10198800002F1B9280F205817B42DC400023E20F8E
:1019980042EA4303002124F000401993FEF75EFD5C
:1019A8009DA3D3E90023FEF78FFD9DA3D3E9002370
:1019B800FEF7B4FEFEF79AFF9B4A9C4B1A9012EA78
:1019C800290238BF1A46B9F1000FB8BFC9F100099A
:1019D800002F1C9280F2E8807B4229FA03F0002352
:1019E8004FEAD079002120F0004049EA4309FEF788
:1019F80035FD89A3D3E90023FEF766FD88A3D3E963
:101A08000023FEF78BFEFEF771FF874A874B86EAB5
:101A1800E67412EA260238BF1A46002F82461D9243
:101A2800A4EBE67480F2CC8000267B42DC4024F0F4
:101A380000400021FEF712FD77A3D3E90023FEF74B
:101A480043FD77A3D3E90023FEF768FEFEF74EFFB8
:101A58001D9BE40FCDE90BA31C9B0E9009931A9BC9
:101A680044EA46040893199B022107931B9BCDE97E
:101A780002780693169B6E4A0493179B1498059355
:101A8800189BCDF804B000932B460D94CDF8289000
:101A980010F0B2FC0BF101031FFA83FB139A1F9B92
:101AA800ADF88020ADF882B020991B6815980DF12B
:101AB8007A029847014600283FF4F8AEDEE60F2D7B
:101AC80008F10100DDE92821DDE92A362FD02CD8DC
:101AD800032C01D00B2D42D1B8F1000F03D1DDE961
:101AE8003289CDE9248926909DF8D8008DF8C00068
:101AF80037981018389A41F100019B1846EBE272AA
:101B0800CDE92A32CDE928012C9B39992D9A5B1809
:101B180042EBE172CDE92C323A992E9B2F9A5B1851
:101B280042EBE172CDE92E32C9E6282DD3E7B8F1B0
:101B3800000F03D1DDE93289CDE924892690369852
:101B480010189DF8DC2041F1000102F00102CDE9F6
:101B580028019A1846F100062A922B96AFE6B8F1AA
:101B6800000F03D1DDE93289CDE9248926909DF85B
:101B7800D8008DF8C0003798121841F10001CDE95E
:101B88002821389A9B1846EBE2762A93E5E7282D18
:101B9800CDE6A7F12003C7F1200204FA03F324FAE3
:101BA80002F21343BC40F2E6A7F12003C7F120027A
:101BB80009FA03F329FA02F2134309FA07F00FE7C7
:101BC800A7F12006C7F1200304FA06F624FA03F366
:101BD8001E43BC402BE701231C40ADF8D0309DF8D4
:101BE800DC30CDE901B864F300038DF8DC30169BD6
:101BF80006940493179B022105930E4B0E4ADB6B48
:101C0800149800932B46CDE93279369610F0F4FB00
:101C180040E700BFAFF300800000000080842E4141
:101C28000000C0FFFFFFDF4114700100636C01007A
:101C3800AB8E010044030020118F01000123ADF891
:101C4800D030129BCDE93279CDE93764D3F80090D2
:101C5800294E2A4B9DF9C07016EA240638BF1E4645
:101C6800002CB8BF6442002F8DF8D87029DA4FF0E5
:101C7800000A7B42DC4024F000400021FEF7EEFB26
:101C880019A3D3E90023FEF71FFC19A3D3E9002306
:101C9800FEF744FDFEF72AFE169BE40F0493179BFC
:101CA80044EA4A040890059302212B46CDE90664CC
:101CB800CDE90278CDE9009B114A149810F09CFBFD
:101CC800E8E6A7F1200AC7F1200304FA0AFA24FA81
:101CD80003F34AEA030ABC40CDE7129B01350433FB
:101CE800129379E5AFF300800000000080842E4154
:101CF8000000C0FFFFFFDF4114700100636C0100AA
:101D08005C8F010008B500F0B7F8012200230949EB
:101D1800C0E9002241610849C0E902330A60074965
:101D280003610A60064A1360064A1360064A136094
:101D380008BD00BF636C01007C0100207801002011
:101D4800381B0020341B0020301B00202DE9F041F7
:101D580007460E46154600F08FF8C36804461BB9BF
:101D680043691A78002A41D10023E3606368BB42C3
:101D780056F8232008DB324B6361204600F062F8F6
:101D88004FF0FF30BDE8F081511C616192F800808E
:101D9800B8F12D0FEFD1911C616151782D29A16007
:101DA80004D192786AB901336360E4E749B9244BF6
:101DB80041462846636113F09CF80028DDD0C4F83A
:101DC8000880D4F808802846414613F092F8B8F104
:101DD8003A0F636900D070B91B7813B9636801338F
:101DE8006360204600F02EF83F20CBE75A1C426182
:101DF8001B788360E5E742783A2A0BD000222261FB
:101E08001B7813B9636801336360204600F01AF841
:101E1800A068B7E718786268094928B9013297427B
:101E2800626004DD56F82230C4E90431EAE76161F2
:101E38002D7820463A2DD5D100F004F82846A1E7A0
:101E4800636C01000268074B1A604268064B1A600F
:101E58008268064B1A60C268054B1A600269054B16
:101E68001A6070477C01002078010020381B002090
:101E7800341B0020301B0020004870476001002000
:101E88002DE9F04F97B000AFD7F880B03B62CBF3A5
:101E9800C0030446894690F802A0FA62BB6141B9C2
:101EA800457800780AEB800020444D4517D8A0EB10
:101EB8000409E378FB61BAF1000F02D01BF0010FAF
:101EC80016D1FB6953BBFB6A1BB1494620463A6AE7
:101ED80098474D4628465C37BD46BDE8F08F461CFE
:101EE8003046FFF71AFA0130304409F10109DCE7FE
:101EF800626823787A62FA6A9900796104EB83014F
:101F0800002A40F005810E464FF000084D4601EBCF
:101F18000A094E4550D101EB0A0610E01BF0020FEA
:101F2800D1D023789A007A61626804EB83017A62DF
:101F3800FA6A002A7BD14D46904601EB0A061BF04F
:101F4800050F0CBF02230123FB62FB6906EB430A62
:101F58000BF00203BB625645BCD016F8021B16F8FC
:101F6800013C54F823909B4B994502D39A4B9945D1
:101F78003AD3BB69002B44D0786A0FF0FCF80028EC
:101F88003FD09648036813F0060F13D0E9468AB08D
:101F98006A46934B53617B6AC2E906314FF400737A
:101FA8001384904B42F8103F00234FF4125100F075
:101FB800FBFDCD46023DCEE716F8013BF96254F829
:101FC8002300FFF7AAF9D7F88430F96A01304BB13A
:101FD800D7F8883098453EBFD7F8843023F81800E2
:101FE80008F10108054494E7BB6923B1786A0FF04A
:101FF800C2F80028C5D11BF0010F05D1FB6AED1A04
:10200800A9E7BB6A002BA6D04846FFF786F9D7F8A0
:10201800843053B1D7F8883098453FBFD7F884202B
:10202800431C22F8183008F10108054493E7BAF177
:10203800000F73D01BF0040673D0D046002607F1BA
:10204800480052463B61B96213F0BFF8B96A3B6970
:1020580001EB0A02BA62FA69F9695200FA60BA6ACF
:1020680002EB41023A610BF00202BA603A69B96ABE
:102078008A4258D162781BF0020F18BF00217A6299
:1020880008BF4FEA5801B2181BF0010FD2B240F056
:102098009F801BF0040F14BF40460020BB61627094
:1020A800A070E17020463A6A7969FB6A9847051E74
:1020B800FFF610AFBB69414623707B6A3A6A6370CA
:1020C800FB6984F802A0E37007F14800FB6A9847AF
:1020D800B0F10008C0F2B4807B69A9EB0A01C91A03
:1020E800FB683A6AC91AD7E90A0398470028C0F278
:1020F800A9804FF0000BA84408EB000507F1380A47
:10210800B34571D300213A6A0846FB6A9847E1E66D
:1021180056464FF0000807F1380092E75646D04679
:1021280096E7B04694E7BA6A12F8021B12F8015C07
:10213800BA6254F82500274A904202D3264A9042B0
:102148001ED3BA6932B1786A7B600FF014F87B68E5
:1021580000288BD1BA6802BB08F1280207F1300CBD
:1021680008F10100944407F1580208F1020852FAF4
:1021780080F00CF8101C5FFA88F800F8105C75E71E
:10218800BA693AB1786A7B600EF0F5FF7B6800287F
:102198007FF46CAF1BF0010F09D006F1280207F19C
:1021A8003000711C161806F8205CCEB25EE71BF0F2
:1021B800040F3FF45BAF08F1280207F1300008F183
:1021C800010102EB000808F8105C5FFA81F84DE79E
:1021D800002063E7545201004099010044050020A3
:1021E800A5650100040000011BF80A3054F823908B
:1021F80087F83730D7F88430FBB133F81B800121DA
:102208003A6AFB6A07F13700984700281ADB054449
:10221800B8F1000F06D14846FFF77FF800F1010832
:102228001FFA88F8414648463A6AFB6A98470028E8
:1022380008DB05440BF1010B62E7D7F88480DEE781
:10224800454647E6054645E6014B1860704700BF1E
:102258008001002080B505460E46174698460CF0CA
:10226800ADFD034612F0E8FF0446DFF81890424639
:1022780049F8003039463046A84754F8090004F0B8
:102288008BFF00BF080000002DE9F047058B0446CE
:102298002807904611D4022905F0070540F0CC80A4
:1022A80020460FF031FB78B10138218B042811D872
:1022B800DFE800F0C2106D85950001290CBF45F0DC
:1022C800100545F02005258388F31188BFF36F8F2B
:1022D800BDE8F08701F0070AAA4500F0A5800027AD
:1022E800B9463E46A368002B00F0BC8041F00801C7
:1022F800218388F31188BFF36F8FA168002900F04C
:10230800BA800D68002900F0B68033465246204650
:10231800D1F80480C047002D76D02B6829461D4689
:10232800F0E701F007035A1F012A1BD8002221F009
:102338000701062B276889B2C4E9002209D13B4668
:1023480003E0628B013262831B68002BF9D141F0F4
:102358000201204621830FF0D7FA00287AD041F0F5
:10236800200176E0042B0AD121F0070189B220462A
:1023780021830FF0C9FA10B141F020012183218B8C
:1023880001F0070AAA454FD00027B946AAE72369F2
:1023980021F0070141F00601062DD3F800902183B2
:1023A8002DD1B9F1000F3FD041F00801218388F306
:1023B8001188BFF36F8F20463949C84729E021F0BB
:1023C8000701236941F0040189B2042DD3F8049070
:1023D8002183E6D000274FF0040A3E4682E721F029
:1023E8000701236941F0050189B2052DD3F808904A
:1023F8002183D6D000274FF0050A3E4672E7002712
:102408004FF0060A3E466DE72B4687E7B9F1000F05
:10241800D1D1EFF31188202383F31288BFF36F8F94
:10242800238B23F008032383258BEA062ED525F07A
:102438001003238305F007056669218B002EBFF67C
:1024480070AF00232768C4E9003321F0070141F089
:1024580001012183218B4FF0000901F0070AAA45E9
:102468007FF440AF002F9CD041F00801218388F30E
:102478001188BFF36F8F002FC8D03D6839463346A7
:10248800524620460FF06CFA2F46F4E7AB067FF56C
:102498001BAF25F02003238305F0070500E700BFE5
:1024A800951901002DE9F047044607464FF0010948
:1024B800DFF8508014B93846BDE8F08794FAA4F5DF
:1024C800B5FA85F509FA05F32E0108EB05156FEA4B
:1024D800030A24EA03042B7B002BEBD058F80630C0
:1024E8001B694BB94644736804222846196807EAF1
:1024F8000A0700F019FBDDE7284698470028D9D1DC
:10250800F0E700BF1857010030B5002289B00F4925
:102518000F4812F0F6FA002200230024CDE9062322
:102528000E230C4DCDE903344FF440722846CDE913
:102538000144094B094900940CF04CF90849284614
:102548000CF086F8204609B030BD00BF6D250000AC
:10255800C80C002008080020752800003039002029
:102568005966010001480BF0C3BE00BF14060020E5
:102578002DE9F04780461F480F460FF0A1FB06469D
:10258800002830D000252846BDE8F087237B6BB1B2
:102598002368DB680BB12046984723681B69D3B9C9
:1025A800636804222046196800F0BEFA0136103428
:1025B8004C45EBD3B8F1000FE5D0002DE2D028460A
:1025C800FFF770FF0546002FF7D000214FF4A470E5
:1025D8000CF0B8FBF1E7204698470028E0D00AFA4B
:1025E80006F31D43E2E705464FF0010A024CDFF807
:1025F8000C90DDE74C1B00201857010028570100FC
:1026080008B5034608462BB1044A136000F01AFDCA
:10261800002008BD6FF01500FBE700BF8401002013
:1026280010B5044C237813B903480BF061FE01235D
:10263800237010BDD83800201406002010B50446B9
:1026480006480FF03DFB3CB1054BD3E8EF1F0139BD
:10265800C3E8E21F002AF8D110BD00BF441B0020C8
:10266800481B002000200146034BD3E8EF0FC3E8C6
:10267800E21F002AF9D17047441B002070B5FFF70C
:10268800F1FF0546074C084EB44200D370BD63689D
:102698005B792BB123685B6813B1294620469847BC
:1026A8001034F1E7185701002857010010B5044C01
:1026B800044920460EF082FE034B1C6010BD00BF8B
:1026C800EC040020F85A01003C1B002008B5002348
:1026D800084A4FF400411370074A08481360084A33
:1026E8001360FFF78DFFFFF7E1FFBDE8084000F03A
:1026F8006BB900BFD9380020441B0020C51C01005D
:10270800481B002001460022002301480EF077BE36
:10271800EC04002001480EF00DBF00BFEC040020BF
:10272800024B014618680EF059BF00BF3C1B002041
:1027380001480EF08EBF00BFEC0400202DE9F041E7
:10274800334B1878002860D0FFF7E4FF044678B1CF
:10275800304BD3E8EF1F0139C3E8E21F002AF8D154
:102768002D4DDFF8B88045452DD32046FFF7D8FF1B
:102778002B4B2C4C1B68002B19DD12F07BF94FF406
:102788007A72A0FB020302FB0131C30B43EA414307
:10279800D4E900209B1A40F2E9324FEAD13161EBCB
:1027A8000001934271F1000101D3FFF767FFD4E9FB
:1027B800003213F57A7342F10002C4E90032BDE831
:1027C800F041FFF7B5BF6B685B793BB121784B07E8
:1027D80006D52B68214628461B6898471035C2E75E
:1027E80020462688C1F3C20700F066FAC6F38216AF
:1027F8000246002EEDD00028EBDB0123394628469F
:1028080000F0ACF9B042E9D3E3E7BDE8F08100BFDE
:10281800D8380020481B002018570100285701000D
:10282800441B0020C00C002070B50D4D297861B9FB
:102838000120FFF79DFE0B4C0B4EB44206D3FFF769
:102848007DFF0028FBD101232B7070BD63685B7985
:102858001BB1236820469B6898471034EDE700BFFA
:10286800D9380020185701002857010000212DE908
:10287800F0470846FFF77CFE044658B340F2676805
:102888004FF0000912F0D8FC1B4B1C4A1B58136070
:1028980033B11B4B1B68092B02DD1A480BF028FDCE
:1028A8000025194FDFF85CA044B12046FFF7FAFD78
:1028B800044618B94FF0FF384FF0FF39FFF73EFFD5
:1028C800064628B9B5B942464B4650460BF036FD88
:1028D8003546E9E74FF0FF384FF0FF39D2E72B686C
:1028E8009B691BB100222846114698471035BD4206
:1028F800F5D3E8E7054DFAE708000000401B002083
:10290800481B002014060020285701001857010012
:1029180013B518480FF0D4F9174B1B7873B1EFF3C0
:102928001184202383F31288BFF36F8FFFF706FF0C
:1029380084F31188BFF36F8F02B010BD0F4B1B6873
:10294800002BF9D050B9002200230D48CDE900230F
:102958004FF4004200230CF0DBFCEDE70928EBD133
:10296800074812F0DAF8074802B0BDE810400BF04B
:10297800BFBC00BF481B0020D9380020401B0020E6
:10298800C80C00201406002010B5064B04461B682E
:1029980098472146A06004480EF0ADFDBDE8104000
:1029A800FFF7B6BF84010020EC040020044A054B61
:1029B8009B1AB1EBD30F34BF52F831000020704797
:1029C800385601001857010000210B480B4B30B551
:1029D8001B1A0B4CDB080430994200D130BD10F8AB
:1029E8003120256802F0070225F007052A4344F83C
:1029F800042B0131F0E700BF3856010018570100D9
:102A080030050020F8B5064600240A4F0A4DED1B94
:102A1800ED08AC4203D14FF0FF342046F8BD57F81B
:102A2800340020B13146FEF766FC0028F5D00134A9
:102A3800EFE700BF385601001857010000282DE9BC
:102A4800F047884615461F461DDA4FF0000A5446DF
:102A5800DFF89090244EA6EB09063609B24509F135
:102A6800100902D12046BDE8F08759F80C0C3B4606
:102A78002A4641460079FFF7E1FF844238BF044601
:102A88000AF1010AEAE7194B194AD21AB5EBD20F33
:102A980026D203EBC5031C79BC4228BF3C4607225B
:102AA800144EC0B200EB400056F82530824023EAAD
:102AB800020304F00702824013430021032223FA91
:102AC80002F000F00700814202F1030238BF01461C
:102AD8001E2AF4D123F007030B4346F82530C1E73B
:102AE8000024DCE718570100285701003856010078
:102AF8001857010030050020F8B506460F46002497
:102B0800074D084BED1AED08AC4200D3F8BD002183
:102B180022B23B46304601340FF0E0F8A4B2F3E7A6
:102B2800185701003856010038B50D4611460A4BB2
:102B38004268C31A1B110446013313714368997123
:102B4800FFF7DAFF012263681D6063685A71BDE808
:102B58003840FFF765BD00BF1857010070B14168E4
:102B6800097973B1002A17DBCBB20C4903EB430395
:102B780051F82200D84000F0070070474FF0FF31AD
:102B8800EFE707490748401AB2EBD00F3ABF01EB0D
:102B9800C2010879184670470420704730050020A4
:102BA80038560100185701002DE9F04F8FB0C1F3D6
:102BB8004A2804AF0D469146B8607B600C0DB8F109
:102BC800000F67D000264FF0040B4FF00A0A07F1F8
:102BD8001403C7F80C80C7E907667E620193CDF835
:102BE80008B0CDF800A007F11C0332464846F96842
:102BF800FFF746F9B0F5006F034620D32A4803686B
:102C080013F0060F17D06C468AB0D9F8041004AB3D
:102C1800264D1A46C3E9055140F2FF71D9614FF4B8
:102C280000711984224B42F8103F4FF41251334679
:102C3800FFF7BAFFA5462C37BD46BDE8F08FC0F3B5
:102C48000A0804F11700184420F0070080083B60C8
:102C5800FFF758FD68F35325044690B13B6800F12F
:102C68001001C7E9083607F11403F961CDE900A39B
:102C7800CDF808B048460F4AF96807F11C03FFF77A
:102C8800FFF868F353252A4620467B68B9680FF099
:102C98004FF8D0E704F1170020F007008008FFF78D
:102CA80031FD0446EDE700BF5C0500206E660100BB
:102CB800040000010D1D0100406820B1034BC01A3B
:102CC80040F38F0070474FF0FF3070473005002009
:102CD8000EB403B503AB53F8042B01460448019323
:102CE80004F0E2FD02B05DF804EB03B0704700BFEA
:102CF8004D1E0100CA0605D48B064CBF0249034984
:102D0800FFF7E6BF704700BF626C0100AD660100C7
:102D18002DE9F04F89B09A46149B9DF84CB0069364
:102D2800159B04460593169B0D469046179E0493E3
:102D3800BBF1000F00F09D8006F4807307930EF03E
:102D4800CBFF06F00209024600283ED020469249F1
:102D5800FFF7BEFF0746B9F1000F08D016F0440F81
:102D680035D12A4620468D49FFF7B2FF074406F0C1
:102D7800010353B18A4B204653F82B20894B8A49CB
:102D8800002A08BF1A46FFF7A3FF06F48073002B3A
:102D980049D006F00803002B63D1B8F1000F66D0C4
:102DA800424620468149FFF793FF0546069B3D446E
:102DB800002B6DD1049B002B73D1F30700F1E58044
:102DC80031462046FFF796FFD9E00746C3E7784B20
:102DD80018680028CAD0774B4FF47A791B684FF4EB
:102DE8006161B5FBF3F5B5FBF0F300FB135509FB87
:102DF80005F5B3FBF1F2B5FBF0FE4FF03C0C01FB1F
:102E0800123100FB1E55B1FBFCF309FB05F5B5FBC0
:102E1800F0F50CFB131120460091CDE901E5664958
:102E2800FFF756FFA2E706F00803EBB1634B204615
:102E380053F82B206249FFF74BFF0546B8F1000F06
:102E480005D0424620465949FFF742FF0544BAF1EA
:102E5800000FABD0524620465A49FFF739FF0544C8
:102E6800A4E74FF0000AE1E706F00805E6E7454663
:102E78009CE7BAF1010F069B06D1002B65D1049B94
:102E8800002B7CD000250CE0002BF8D04E485DE0EC
:102E98004E48069B22464E490EF03CF9049B002BF7
:102EA80069D0DFF83081DFF83091049F3146102F68
:102EB800204628BF10274FF0000AFFF71BFF554593
:102EC80046DC059B494620461A78FFF701FF4FF07C
:102ED800010A1AF0070F03D141462046FFF7F8FE12
:102EE80057453CD9059B4946204613F80A20FFF769
:102EF800EFFE0AF1010ABAF1100FEAD14FF0000A09
:102F080020463649FFF7E4FE5246059B20469A5C68
:102F1800334B995C11F0970F08BF2E223149FFF708
:102F2800D7FE0AF1010ABAF1100F1DD01AF0070FE7
:102F380003D141462046FFF7CBFE57455246E4D819
:102F480041462046FFF7C4FEEBE720485D46A0E770
:102F580041462046FFF7BCFE0AF1010AAFE72046CA
:102F68002149FFF7B5FEC4E7059B3B440593049B45
:102F7800DB1B049399D1BBF1000F7FF41EAF2046F1
:102F880009B0BDE8F04F0EF050BF2046054A06498B
:102F9800FFF79EFE14E700BFB5660100B9660100A1
:102FA8000C5B0100B06601009C6E0100DE6601004A
:102FB800541B0020501B0020C2660100205B01004A
:102FC800E2660100E86601007B1E01004D1E01005B
:102FD800B1780000F5660100ED660100F7660100B2
:102FE8003C980100A7740100F366010042F20F73D8
:102FF80073B58B4228BF0B46056804460521684611
:103008000D4A0CF08BFA06466368284604225B6872
:103018000A490EF0FCFE63683246694628465B683A
:103028000EF0F5FE6368172228465B6804490EF027
:10303800EEFE02B070BD00BFCE8001001167010036
:10304800F966010000210123064A904206D8064A83
:1030580001B901231360054B18607047012140082E
:103068005B00F2E740420F00501B0020541B002079
:10307800014B036000207047345B0100F0B40C4B37
:103088000C4E5F6A0C4BB34203D36FF08500F0BC63
:1030980070475D68BD4209D31C693CB195F802C010
:1030A8000579AC4502D12346F0BC18472433EAE73A
:1030B800581B00209C070020540700202DE9F047EA
:1030C80005460E461746124CDFF84880DFF8489050
:1030D800444503D36FF08500BDE8F0876268D9F8EE
:1030E80024309A4212D3A36983B19078297988420F
:1030F80005D13A4631462846BDE8F0471847527987
:10310800012A03D13A463146284698472434DFE756
:10311800540700209C070020581B00202DE9F0418F
:1031280005460E4617460A4CDFF82880444502D368
:103138006FF0850009E063690BB92434F6E73A4675
:103148003146284698470028F7D1BDE8F08100BFEE
:10315800540700209C0700200022024B1A605A6086
:10316800704700BF131C002070B50B4B0B4CA342DB
:1031780001D3002070BD0022196A1E7F0439D5B220
:10318800AE4201D82433F2E7013211F832508542B9
:10319800F5D10120EEE700BF540700209C0700206E
:1031A80008B5034604480268520703D00121034AC0
:1031B8000EF0A2FE002008BD94050020366701002D
:1031C80038B5054610F09AF910F1780F044615D174
:1031D8001148036813F0060F04D02B4602210F4A4A
:1031E8000EF08AFE28460EF089FE0D4A0024D2F819
:1031F800C43023EA0003C2F8C4300AE00028F1D042
:10320800054803685B0704D02B460121054A0EF0E8
:1032180073FE204638BD00BF9405002051670100A9
:10322800581B00207267010008B509480378C3F3EA
:1032380041130A3350F823303BB100F1080200F182
:1032480010019847C043C00F08BD1846FCE700BFEF
:10325800581B002004282DE9F74F04460F46DFF8D5
:10326800989015D001282FD1DFF8908098F8B930C0
:1032780053B300F02DFF224D4D4522D24FF0000AE6
:103288002A6A2B7F5FFA8AF6B34204D82435F3E71B
:10329800FFF762FFE8E702EBC6063079019210F00B
:1032A8002DF9834630790EF029FED8F8C430BBF1E9
:1032B800000F23EA0003019AC8F8C4300AF1010A92
:1032C800DFDA002388F8B9300D4D4D4508D30B4B94
:1032D8001B6A6BB13946204603B0BDE8F04F18476A
:1032E800EB681BB13A462146284698472435ECE757
:1032F80003B0BDE8F08F00BF9C070020581B0020DA
:103308005407002073B5C4B263060D468DF8074014
:1033180007D02046FFF728FFD8B1184B93F8BA001A
:10332800B8B11748154E036803F007039DB1022B87
:1033380004D923460321134A0EF0DEFD9DF8070049
:1033480005F07EFAF3691BB108200DF107019847D3
:10335800012002B070BD022B04D9234603210A4A7A
:103368000EF0CAFD9DF8070005F09EFAF369002BE0
:10337800EED009200DF10701E9E700BF581B002036
:103388009405002094670100A767010073B50446FF
:103398008078334D8DF800002379627943EA02235F
:1033A800ADF80230E37803F003038DF804300EF033
:1033B800A5FDD5F8C430064618420CD0A47820469E
:1033C80000F068FE2046FFF7FBFE11F0E0F910B9A7
:1033D80096200BF0D5FC684605F002FA10F1780F3C
:1033E80025D12048036813F0060F05D002219DF867
:1033F80000301D4A0EF080FD9DF8000005F090FA9F
:1034080010F1780F22D11748036813F0060F05D082
:1034180002219DF80030154A0EF06EFD0120D5F806
:10342800C43085F8B9003343C5F8C4300CE000282F
:10343800E2D00C4803685A0705D09DF800300C4AC2
:1034480001210EF059FD002002B070BD0028E5D022
:10345800044803685B07F6D09DF80030054AEFE79B
:10346800581B002094050020BC6701000368010078
:10347800DF670100236801002DE9F047A34E0446E9
:10348800B3690F461546FBB9237803F01F03012BD8
:1034980000F09D80022B00F0048133BB94F90000FA
:1034A8002A680028617834DA062912D008292BD036
:1034B800D9B901235170137096F8C3305B0043F0FB
:1034C8000103137002232AE198470028DCD1002069
:1034D8000DE06288100A011F0129844605D90728D2
:1034E80003D8716AD2B20C781CB96FF01500BDE828
:1034F800F0874E78664503D19A4200F00B8101337C
:103508002144F0E70B780AE196F8BA3013700123EA
:1035180005E101390829E8D801A353F821F000BFD3
:10352800C1350000F3340000CF350000F33400004B
:103538004D350000F3340000F3340000F33400008C
:1035480059350000A07805F0FDF80028BFD0CCE779
:103558006388756A63BBFFF7FFFD638886F8BA3036
:10356800F369002BB3D0032069499847AFE76B781C
:10357800042B10D0052B11D0022B04D16F7963884E
:10358800BB4208BF01202B781D442B78002BEED1BD
:103598000028AAD0DFE795F80380F4E76388BB42E8
:1035A800F1D1B8F1000FEED12846FFF7EFFEEAE7B8
:1035B800FF270020B846E8E76388012B95D1002350
:1035C80086F8C33083E76388012B8ED1F8E796F835
:1035D800BA30D5F800C0002B87D0756AA3882A4670
:1035E80094F804E0107800283FF47FAF517802295E
:1035F80004D192F80480F04500F293800244F1E788
:103608008CF800208CF80120396060E7154494E0BC
:103618000B2A7FF46AAF00274FF0FF08BA46C1466D
:1036280006E06B78042B0FD0052B21D02B781D4496
:103638002B78002BF5D1F36913B151460720984731
:10364800002F7FF444AF50E795F80280A38895F8DF
:1036580003909845EAD163889945E7D1B8F1070FF7
:103668001CD806EB0803AA46012783F8BB90DDE7C0
:10367800A3884345DAD1A3784B450AD0AF783846BA
:1036880000F008FD3846FFF79BFDB0FA80F77F0988
:10369800CCE72846FFF77AFE0746C7E7AA46002781
:1036A800C4E794F900206378002A18DA002B7FF425
:1036B8001CAF24792D6863060AD02046FFF754FD15
:1036C80000283FF412AF96F8BA30002B3FF40DAF44
:1036D8002946204605F008F900236B70F2E6012B15
:1036E80008D0032B7FF401AF6388002B7FF4FDAE75
:1036F800012103E0618800297FF4F7AEA088FFF775
:1037080001FE00287FF4E3AEEFE600BF581B00205F
:10371800121C0020022829607FF4F4AE4B883B601D
:10372800D5E694F9000062780028BFF671AF002A48
:103738003FF466AF0A2A7FF4D8AE2A78002A3FF40D
:10374800D4AE697804297FF461AFA9788B427FF4FD
:103758005DAF072B8EBF00239B1993F8BB308CF805
:103768000030D4E62DE9F84F05460F4690469946B5
:103778000426DFF840A0DFF840B04B464246394601
:10378800284605F0F7F810F10B0F04460ED1DAF8C9
:10379800003013F0060F05D02B465A46022150463A
:1037A8000EF0AAFB0BF04CFA013EE6D12046BDE82C
:1037B800F88F00BF940500204468010013B5164C2B
:1037C800237DF3B9E26801AB8020A1680192FFF77D
:1037D800C9FF019AA3681344A360E3689B1AE360D6
:1037E8006BB962B12369E2889A4208DD94F8C8206F
:1037F80093FBF2F102FB11330BB90123237502B0DD
:1038080010BD002380201A461946237502B0BDE872
:10381800104005F0AFB800BF581B0020002330B59A
:1038280085B002460D460193002860D100293DD19C
:1038380008220B460DEB02010FF079FE002804DA8E
:10384800802004F0FDFF05B030BD2E4C029AC4E97B
:1038580003552260039ABDF80E30626004F1380205
:10386800A2609DF908202575002A12DB802B0CD94F
:10387800254803685B0703D00121244A0EF0A8FA03
:10388800802004F0DDFF0020DBE713B1C4E9033337
:10389800D9E7FFF7C9FC0028D2D0E28823699A4209
:1038A800D4BFE260E360FFF789FFCCE7154C01ABBA
:1038B800D4E90215002D04DC0FF039FE0028C2DA25
:1038C800BEE72A460FF033FE0028D9DB019AA36829
:1038D8001344A360E3689B1AE360002BB3D104F19F
:1038E8003803A360FFF7A0FC0028DCD1A8E78028F4
:1038F800A9D1044BDA68002AD5D11B7D002BD2D17F
:10390800A1E700BF581B0020940500206B68010048
:10391800054B064A58629A62054A0020DA62054A4F
:103928001A63054A9A617047581B002081340000C9
:103938008530000025310000C53000002DE9F34135
:103948000446514D4FF0FF334FF0FF324F480AF015
:10395800E9FB95F8B8308BB14D48036813F0060FB2
:1039680003D002214B4A0EF033FA6FF07704474830
:103978000AF050FC204602B0BDE8F0816B6A83B9BA
:1039880000F0DAF8FFF7C4FF6B6A53B940480368E0
:103998005A0703D00121404A0EF01AFA4FF0FF34BB
:1039A800E5E73E482C62E8616E6A05F033F904F0F9
:1039B80097FE041EDBDB00F0ADFB041ED7DB73783B
:1039C800012B01D1F37953B9314803685B0703D060
:1039D8000121334A0EF0FCF96FF01504C7E7002601
:1039E800684685F8C830ADF802308DF804608DF867
:1039F800006004F0F5FE041EB9DB802768468DF8E8
:103A0800007004F0EDFE041EB1DB3046254905F0D8
:103A1800EDF8041EABDB3846224905F0E7F8041E32
:103A2800A5DB214CDFF8848044451AD3002004F03C
:103A380077FF041E9BDBD5F8C430802043F00103D8
:103A4800C5F8C43004F06CFF041E90DBD5F8C43010
:103A5800002443F48033C5F8C430012385F8B83016
:103A680085E70026276A227FF3B29A4201D82434D8
:103A7800DAE707EBC30257F83310107905F0B6F808
:103A880001360028EFD089E7581B0020D005002018
:103A98009405002084680100A76801005D320000D9
:103AA800CC68010025380000540700209C0700203E
:103AB80030B51F4B8BB005AA03F1100514461868E2
:103AC8005968083303C4AB422246F7D11B78102249
:103AD8002370002101A811F09FFB12220021154834
:103AE80011F09AFB102101A80FF026FE00281BDD1B
:103AF8000828B8BF082001AB09381A1800200D495A
:103B080012F8013F0AAC04EB131403F00F03283337
:103B18006B4414F8144C13F8143C013008280C704A
:103B28004B7001F10201EBD102480BB030BD00BF70
:103B380006690100DB3800202DE9F04F87B0924B71
:103B480000AF93F800B0BBF1000F04D08F481C37CA
:103B5800BD46BDE8F08F8D4C00264FF0011AB046E7
:103B68003546B14623783BB9894B02349C42F3D1A0
:103B78000123854A1370E9E76378052B1DD8DFE830
:103B880013F0B70006000101B7001F0056004023DC
:103B980087F810B07B8287F814B007F1100004F0A2
:103BA800E3FD40B1082307F110007B8204F0DCFD3F
:103BB80008B1A7F812B07B8AE37123781C44D1E7D7
:103BC800E378002BF9D1A3783BB308F101085FFA39
:103BD80088F8F2E76A68944222D024359D42F9D3E6
:103BE8006C4803685E0716D06D4688B06A466A4B13
:103BF800C2E90534032342F8103F00234FF4C251B1
:103C0800FEF7D2FFAD46634803685B0703D0012186
:103C1800624A0EF0DDF8002099E7614D614BDDE75F
:103C2800AB68002BD1D0414620469847CDE7002D00
:103C38005CD1584803685D07EDD05B4A01210EF05E
:103C4800C7F8E0E72B6AA27803EBC103FB601B7996
:103C58009A4209D001312B7F9942F3D34D4803682A
:103C68005C07D8D0514AE9E70123E078DAB200F0DE
:103C780003003875207994F805C040EA0C20788252
:103C880094F90200002826DA4FF0010C03F1100025
:103C98000CFA00F010EA0A0F24D142F080003874C0
:103CA80007F11000C7E90032B96004F05DFDD7E9FB
:103CB80001213B68B0B9397CF86811F0800FA17018
:103CC80001714FF001011DBF1032D2B291409940ED
:103CD8004AEA010A71E70120984010EA0A0F01D167
:103CE8001046DCE70133102BBFD1B3E70021B2E760
:103CF800032E29D1FFF7DCFEF86070B1FDF70DFB4C
:103D080058B11028FB6814D0224B1B68590704D0FF
:103D18000121274A1F480EF05BF86FF00201237853
:103D2800091BE21804EB5303D14219D50136F6B248
:103D380043E71846A31C00F1100250F8041B9042F8
:103D480043F8041BF9D1E8E7002EE6D1B9F1000FDA
:103D58000DD1104803685A073FF45DAF154A6DE767
:103D680002F801BC13F8010902F8020DDCE7A4EB24
:103D7800090389F80230C3F3072389F8033089F867
:103D88000480D3E7A14618E7DA3800204806002067
:103D9800510700209005002017690100FD69010006
:103DA800540700209C07002037690100786901004A
:103DB80095690100E0690100094B00211A4610B518
:103DC8001C78844205D15C681CB1482303FB0120A0
:103DD80010BD0131042903F14803F1D10020F7E7B0
:103DE800241C00202DE9FF4150F8303C04461033D4
:103DF80010F8346C0AD1036950F8282C980740D57C
:103E0800D2B9590715D5002344F8303C54F8303C52
:103E180010330BD054E9097554F81C8C10F0B7FC1A
:103E280000285AD02146334810F095FC04B0BDE86C
:103E3800F08143F00403236103AB304654F82C1C93
:103E4800FFF790FC034658B12B480268520704D08C
:103E580001212A4A00960DF0CEFF6FF01503D3E733
:103E6800039A54F82C3C134444F82C3C54F8283C4E
:103E78009B1A44F8283C54F8243C134444F8243C46
:103E8800C4E703AB304654F82C1C04F005FE034687
:103E98000028D9D1039D54F82C3C2B4444F82C3CE1
:103EA80054F8283C5B1B44F8283C54F8243C2B4429
:103EB80044F8243C002DA6D0304604F0B1FEB5FBF2
:103EC800F0F303FB1055002D9DD154F8283C002B2E
:103ED80099D0304604F03AFE98E744F8200CA4F153
:103EE80018000AF005FA002DA0D04246394630469F
:103EF800A8479BE7000D00209C0500202B6A0100C5
:103F08004B1E012B73B506460D4617D8FFF754FF15
:103F18000446A8B9012D11D101AB012230460DF19B
:103F2800030104F0B9FD019B002BF5D10E4803688D
:103F38005B0703D001210D4A0DF04AFF02B070BDA6
:103F480010F025FC04F1340108B1012D05D1084613
:103F580002B0BDE87040FFF745BF054802B0BDE8B4
:103F6800704010F0F8BB00BF9C050020486A0100B3
:103F7800000D00202DE9F74F064617469846019197
:103F88000DF0FCFF0446002875D1EFF31183009370
:103F9800202383F31288BFF36F8FDFF8E0900022AD
:103FA800002348460AF0CAF9B8B948226243DFF844
:103FB800D0A00AEB020BDBF8045015F1100F24D146
:103FC800304803685B0704D0012133462E4A0DF0C0
:103FD80008FF48460AF08CF90EE00134042C09F178
:103FE8004809DCD1274803685A0703D00121274A2A
:103FF8000DF0EEFE6FF00B05009B83F31188BFF305
:104008006F8F284603B0BDE8F08F0AF802600C9A5B
:10401800019BCBF814200D9ACBF81000CBF8182090
:104028006FF00F023046CBE90237CBF84480CBF86B
:10403800042004F0F5FD68B1304604F0F1FDB7FB4B
:10404800F0F202FB10772FB1DBF8442042F00402B3
:10405800CBF8442018F0020F08D0482303FB04A132
:104068000B48343110F077FB0025C5E7304604F0E3
:104078006DFD0546C0E76FF00F05C2E7401C002044
:10408800241C00209C0500207D6A0100626A010052
:10409800000D002010B5EFF31184202383F312885C
:1040A800BFF36F8FFFF788FE50B14368103307D115
:1040B8006FF08B0300F134014360044810F04BFBB0
:1040C80084F31188BFF36F8F10BD00BF000D00206F
:1040D800F8B5042520270D4CEFF3118687F31288D5
:1040E800BFF36F8F6368103307D16FF08B030848F5
:1040F800636004F1340110F02EFB86F31188BFF3DE
:104108006F8F013D04F14804E6D1F8BD241C00205E
:10411800000D002070B50025094C0A4E3146204696
:1041280010F0FDFA0122A4F118001146013510F033
:10413800B6FA042D04F14804F0D1002070BD00BF88
:10414800581C0020ED3D000070B504460E4601796C
:10415800154815460DF0EFFE10B394F9002063786A
:10416800002A16DB202B04D0222B0ED06FF08500FE
:104178000AE02B681A6840F8102C9A8820F80C2C52
:104188009B7900F80A3C002070BD638800F8093C60
:10419800F9E7212BEAD10723103828603360F2E7CA
:1041A8006FF01200F0E700BF441D0020014608B57B
:1041B80003480DF0CDFE10B1012300F8073C08BDFF
:1041C800441D00200123016981F84B300B6833B18D
:1041D80091F849301BB10248083110F0BCBA704759
:1041E800000D00200123016981F84A300B6833B1C2
:1041F80091F848301BB10248083110F0ACBA70474A
:10420800000D0020012370B582F8483013680D4670
:1042180014463BB192F84A3023B10E4802F1080126
:1042280010F099FAD4F890309A681B699A4205D12F
:104238007DB904F1180140F6CD4204E004F11801FB
:10424800002DF8D00022BDE87040002301480AF094
:10425800D5B970BD000D002038B5056995F89E00E8
:1042680088B195F89F307BB985F84830D5F890002B
:104278000DF0A1FC044600220023044805F11801B2
:104288000AF0BCF9204638BD0020FCE7000D0020EC
:10429800002103460C4AA0F84810106883F89C10C7
:1042A800C3F8940090889279A3F8980083F89A202C
:1042B80083F89B104022A3F89E1083F8A01003F106
:1042C8004C0010F0A9BF00BF18580100F0B5D0F895
:1042D8008C3004465B6885B01B6A1F7D38460DF03C
:1042E8004DFE0646F8B994F88630E3B14FF4806283
:1042F800A06F03A90DF07EFC0546A0B18306A4F1CA
:10430800180384F830600193084B08BF00F1FF35AB
:10431800039900932A4602233846FFF72BFE2946C5
:10432800A06F0DF083FC05B0F0BD00BF0D4200008A
:10433800002310B50469C4F8A8300C4BC4F8A400D5
:10434800596804F1A80269B9C3E9002204F1080018
:10435800074910F0E4F904F11800064910F00BFAC7
:10436800002010BD0A605A60F0E700BF441D00201D
:10437800AF1F0100D542000030B54FF4003342684A
:10438800056942F2A10085B0CDE90103002385F853
:104398009D30106AADF80C100A22007901A9FFF7C8
:1043A800E1F9054C95F89D3023B9012010F070F81B
:1043B800013CF7D105B030BDA1860100002313B53B
:1043C80004698DF8071084F848300122D4F8900069
:1043D8000DF107010DF0EFFB10B910F0D8F940B15D
:1043E8002122002304F1180106480AF007F902B057
:1043F80010BD94F8A130002BF2D0002121200AF042
:10440800A1FCE2E7000D002037B514460A1E054658
:1044180020DDD4F88C0004F14C010DF0CCFB012315
:1044280084F8493023683BB194F84B3023B11148E4
:1044380004F1080110F08FF9D4F88C104B684A6920
:104448009A1ACB699B1A3F2B04D8012384F8A03011
:1044580003B030BD94F89E30002BF9D0064B4022B3
:10446800009328460123019404F14C01FFF782FDD3
:10447800EEE700BF000D002011440000F7B50D461F
:1044880001461D480DF04CFD044610B3064656F88B
:10449800A439691E5F6805291BD8DFE801F01C1ADA
:1044A800031C222610F8061C99B9012300F8063CC3
:1044B8003B6A3246187BFFF7A7FF14F85C2C42B919
:1044C8003B6A1146187D0D4B019600930223FFF7B6
:1044D80051FD03B0F0BD304603B0BDE8F040FFF732
:1044E800D7BE012304F8053CF3E710F8053C002B80
:1044F800EFD00023F6E700BF441D00200D42000066
:1045080037B50024084D4FF0FF334FF4806228463A
:10451800064900940AF034F8054928460AF098F844
:10452800204603B030BD00BF000D0020303C002005
:10453800E06A010008B50821024B034A0DF05CFF50
:10454800002008BDE96A0100F06A010010B50446C0
:1045580008F0AEF808210346074A20460DF04CFF44
:104568002046064A08210DF047FF214604480AF074
:10457800E1FC002010BD00BF856B0100A46B0100A9
:104588008D45000070B58EB004460D46D0F89C608D
:1045980010F003F9024610F04FFE254B1958254B31
:1045A8002846002A18BF1346234ACDE90043234B67
:1045B8008C4218BF13460821214A0DF01DFFD4E98B
:1045C8000A23CDE9022394F90E3028460093237B71
:1045D80008211C4A0DF010FF06A9202220460AF0E7
:1045E80047F8626E0346009208212846164A0DF0E5
:1045F80003FF204605A910F0E0F8034630B1082172
:104608002846124A0DF0F8FE0EB070BD6423059AD4
:104618002846B11A4B43B3FBF6F3CDE90021CDE9A7
:104628000263082133460A4A0DF0E6FEECE700BFB4
:1046380008000000AE6B0100F5660100AC7E0100C9
:10464800B16B0100BD6B0100E96B0100006C01005A
:104658002D6C0100F0B50025044693B029460AAF39
:104668001C220BA810F0D8FD134E1A222021384620
:1046780010F0D2FD214611480AF05CFC09AA4FF45B
:104688000061304610F08DF864224FF400630999F8
:10469800CDE90057C1F500604243D20ACDE90403D1
:1046A800CDE902312046069233460821044A0DF02E
:1046B800A3FE284613B0F0BD304C0020BD470000D3
:1046C800646C010010B504460FF0EBFC08210346AA
:1046D800024A20460DF090FE002010BDAD6C01008E
:1046E8002DE9F3411746002304460A21B86801AAB8
:1046F800019301F0CBFC019DC6B255B12B460121B7
:104708002046144A0DF078FE019D284602B0BDE807
:10471800F081042E0AD93346012120460E4A0DF0B5
:104728006BFE20460DF0BBFE0125EEE77868FEF72C
:1047380069F9B0F1000805DA012120467B68074ACB
:104748000DF05AFE0021334608460FFA88F20DF0A4
:10475800C5FADAE7C36C0100EA6C0100016D0100DB
:104768001346002273B5044601920A21586801AA2B
:1047780001F08CFC019D95B920EAE0744FF40046E5
:10478800294640F2E7304FF47A720023C4FB060151
:10479800FCF716FC0AF0D6FA284602B070BD2B4684
:1047A80001212046024A0DF027FE019DF4E700BFD3
:1047B800206D0100F0B504460D46D0F89C6089B024
:1047C80007A90FF0FAFF034630B1082128460F4A1F
:1047D8000DF012FE09B0F0BD20460FF0DEFF642395
:1047E800079A0B4FB11A4B43002818BF0746B3FB73
:1047F800F6F3CDE90221CDE90463082123462846D2
:10480800CDE90076034A0DF0F7FDE3E7006C0100FF
:10481800AE6B0100406D01002DE9F04387B00546FD
:10482800684609F043FA1423009E082103FB00663A
:10483800164A28460DF0E0FD154F009CDFF854801D
:10484800DFF85490B44203D3002007B0BDE8F083EA
:1048580023680BB11A7832B923463A46142101A8C5
:104868000AF05CFE01AB4246082128460DF0C4FD63
:1048780020460FF012FE094B0821002808BF4B46BE
:10488800074A28460DF0B8FD1434DBE78B6E0100AB
:10489800956E01009A6E0100826E01007C6E010027
:1048A800118D01008B1E022B2DE9F0410746884629
:1048B800144637D81022002160680AF0CBFEB8F100
:1048C800020F064607D1202308213846244A0DF056
:1048D80093FD336816E00A220021A0680AF0BAFEA8
:1048E800C5B22B46082138461D4A0DF085FDB8F1A2
:1048F800040F1AD0102D0DD0202DEAD0082D0CD180
:104908003378DBB208213846164A0DF075FD0020D1
:10491800BDE8F08133889BB2F4E708213846124A93
:104928000DF06AFD6FF01500F2E710220021E06833
:104938000AF090FE0821034604460C4A38460DF05A
:104948005BFD102D06D0202D07D0082DE5D1E4B24F
:104958003470DCE7A4B23480D9E73460D7E700BF0D
:10496800CC6E0100F76E0100E16E0100086F0100D6
:104978002DE9F04F91464FF0FF350122574B85B096
:10498800074688461A602026FDF7BCF92C46DFF852
:1049980050A1494652464046FDF7D8F9411C07D177
:1049A8006A1C52D14F4A012138460DF025FD1DE001
:1049B800732820D0772833D0612817D1DFF828B1A1
:1049C80010220021DBF800000AF044FE054600280A
:1049D800DFD110F031FC454B1B58162BD9D1DBF831
:1049E8000030434A012138460DF006FD6FF01500EE
:1049F80005B0BDE8F08F0022DFF8ECB01146DBF817
:104A080000000AF027FE04460028C2D110F014FC6A
:104A1800364B1B58162BBCD1DBF80030354AE1E782
:104A28000022DFF8C4B01146DBF800000AF012FEDD
:104A380006460028ADD110F0FFFB2C4B1B58162B57
:104A4800A7D1DBF800302C4ACCE7631C01D12B4AF4
:104A5800A9E75FFA86F8C6F3C406002C3CD06B467B
:104A680029461A46A6EB050C0CE0B8F1100F1DD02C
:104A7800B8F1200F20D0B8F1080F2AD108781870A3
:104A880031443344A64203D80CEB01001028ECD97A
:104A9800102CA14628BF4FF0100929464B4638462E
:104AA80001F06EF81035A4EB0904D6E7088880B247
:104AB8001870000A5870E3E708684FEA102E18705B
:104AC80083F801E04FEA104E000E83F802E0D87038
:104AD800D6E708210A4A67E7204689E778010020D7
:104AE800566F01005D6F0100301B00200C000000B4
:104AF8001C6F01002F6F0100426F01007A6F0100E7
:104B0800E16E010070B5104E04460D46337881B150
:104B18002BB10121BDE870400C4A0DF06DBC01239A
:104B28003370082120460A4A0DF066FC01233370D1
:104B380004E083F001033370002BF2D129462046AC
:104B4800BDE870400DF0C8BCED380020946F01003E
:104B5800CF6F010070B504463C480378182B02D18A
:104B68000B78112B31D00B46013A8D18AB4225D169
:104B78008B5C0A780370A2F13003092B344C04D9FA
:104B880022F02003413B052B04D823683149CA543D
:104B9800013323602368022B34D1102200212D48D1
:104BA8000AF058FD2C4A136803F8010B13602B4ACE
:104BB8001368013313600023236023E013F8016BAB
:104BC800182ED3D11E78112ED0D1244D08212B6850
:104BD8002046234A0DF010FC20460021FFF792FFE3
:104BE800204B187870B9204A2B681168042B0ADC0E
:104BF80008B111602B6013F003010BD11268136820
:104C08001BBA136070BD0868043B00BA41F8040B76
:104C18000120EBE75B4203F0030358BF5942022926
:104C280004D1126813885BBA9BB2EAE70329E9D179
:104C3800106802681104C2F3074301F47F010B43B3
:104C480002F47F4213430360DCE700BFEE38002024
:104C58004C1D0020F0380020581D0020501D002059
:104C6800F96F0100EF380020541D00202DE9F84F9E
:104C78000023064615460C462949DFF8A8800B6034
:104C88002949DFF8A890DFF8A8B088F800300B6051
:104C9800012C2F4655F804AF1ED90222494650462A
:104CA80010F034F980B99AF80220003A18BF0122AE
:104CB8009244504602221F4910F028F930B90123C6
:104CC80088F80030013CE3E70022F1E74946504606
:104CD800FCF711FBA8B904370022786811460AF0DE
:104CE80049FC0022144B1146186078680AF042FC0F
:104CF800124B134918603046FFF704FF0020BDE847
:104D0800F88F9AF800202D2AE6D19AF80120002A77
:104D1800E2D053465A46082130460DF06DFBD1E7E4
:104D28004C1D0020EF380020501D0020137001009A
:104D38001970010016700100581D0020541D002034
:104D48005D4B000007B50A480FF0A7FB60B10423CC
:104D5800084A0093126801230549074800F084FFB8
:104D6800002003B05DF804FB6FF01200F9E700BF04
:104D780084530100CC5C01006C57010010B54468F5
:104D8800A3604023C4E9001242680821D36402F1F9
:104D9800580313630023C2E90E33C2E91133C2E991
:104DA8000633C2E90933D162146802F15001536332
:104DB8001364116153611362C2F8D030A36823B140
:104DC8001B6C13B1204604499847A3681B6A0BB1B2
:104DD80020469847002010BDE54D00002DE9F74317
:104DE80004460D468368DB6B03B19847A368DB6A0A
:104DF8000BBB4FF0000905F130084046EA6C01A9E9
:104E08000CF0A7FE0746002836D0A36801991B6955
:104E18003BB3024620469847064628B331464046EB
:104E28000CF0B4FEB7424FF00109E6D00020D5E9F6
:104E38000131984703E0204698470028D9D1A36854
:104E4800DB6963BB05F110073846EA6A01A90CF073
:104E5800D1FE064650BB20460DF08FF9C5F8D0604C
:104E68002FE06FF05706D9E7014640460CF08EFE5A
:104E7800B9F1000FE3D0D9E71648036813F0060F1D
:104E880003D00221144A0CF0A3FFA3681B69002B6E
:104E9800EED0012220460DF103019847E8E72046AD
:104EA80098470028CED103B0BDE8F083A3680199E4
:104EB800DB685BB1024620469847014638460CF04D
:104EC800B5FED5E9013101209847ECE76FF05701AD
:104ED800F4E700BF840500207A71010010B504468C
:104EE8008168183101F0B6FBA1682046BDE8104082
:104EF800014A183101F054BBBC71010038B5836810
:104F08000446D3F87832DB071DD4C0690DF0BCFE27
:104F1800606803685B689847054620B9E0680DF04B
:104F2800EFFFA3681D75A3685B6C13B12946204683
:104F38009847002210F080F9A368C3F82023034B98
:104F4800185802F029F96FF00F05ECE70800000087
:104F580001490DF0AAB900BF626C0100F7B504461B
:104F680080680D46D0F878325A0705D500210DF033
:104F7800BEF9E0680DF096FFE368DB6873B9002DB1
:104F88003BD0A66806F1560738460DF088F9002888
:104F980035D0394606F5AB70FCF7B7F9A268294653
:104FA800E0680DF1060356320DF07FFF58B9A0688E
:104FB80000F5AB715630FCF7A8F9A06856300DF033
:104FC8006EF9ADF8060020460DF03BFCA368D3F857
:104FD80074329B0603D50B4960690DF066F92046CB
:104FE80001F0FAF8A268BDF806302046A2F852305F
:104FF800A268A2F850300DF0C7FB03B0F0BD86F8E8
:105008005601CBE71F5801002DE9F04FA7B0044621
:105018005422002111A810F0FFF80023CDE9053330
:10502800A3682046563302930DF012FC20460DF07B
:1050380094FB10B96069FFF78BFF00264FF0FF372C
:10504800B246B3463546B146A0681422002118304E
:1050580010F0E2F8204600F0DBFFA168E068B1F844
:10506800502056310DF058FF20460DF0D7FF0DF1B6
:1050780044080396DDE90532012A6DD0132B6ED85A
:105088005FBBBBF1000F0AD020460DF0E8FF1423E8
:10509800A26811A956320DEB030000F06DFEB9F1BC
:1050A800000F0CD099F81130FE2B08D1059B26AAC9
:1050B80002EB830252F8542C0AB101330593A0681D
:1050C800059D436A002B40F0B680CEB1C3699E426D
:1050D8002DD00D9600F1180524E002234146029ACE
:1050E80006A800F049FED8F8042006990346029263
:1050F80031B101290AD148B16D4A20460DF056FC5C
:105108006FF00705284627B0BDE8F08F059B002BF8
:1051180034D0D8F8000001F0BDFA98B166B1A5689E
:105128000D9618350CAE0FCE0FC533682B60204690
:10513800FFF7D4FE0125E5E75E4A012120460DF080
:1051480035FCDDE7059BCBB129462046D8F8002081
:1051580001F050FC022809D1059B132B91D9069B1D
:10516800022B8ED10121544B544AC6E7032805D09F
:10517800059B4FF0010B013305937BE7039B33B984
:105188004846D8F8001007AA0DF06DFA054608F150
:105198000408013F9DB3EB68BBF1000F08D0F3B1E1
:1051A80020460DF055FB20460DF0EEFA444AC4E7C0
:1051B800ABB1AE46A368DDF814A003F1180CBEE845
:1051C8000F00ACE80F00DEF80030CCF80030AB6818
:1051D8002BB96B7CFE2B04BF2F7C07F1FF37D5F86A
:1051E80004C0BCF1000F08D0AE460CAEBEE80F00FC
:1051F8000FC6DEF8003033606646A94603E0059B1B
:1052080053B101230393069B17B9022B7FF432AFE6
:10521800059B013305932DE7A368DB6A13B1DB68AF
:10522800002BEED1274B012100932046119B264AE3
:105238000DF0BCFBE5E790F82830A5EB0A05BBB1FB
:105248004FF6FF7290F82910FF2918BF0A469D42B1
:1052580002D313449D420BD98369012120461B4A7E
:105268000DF0A4FB2046FFF739FE6FF0150549E75E
:1052780001210DF031F8A06800F543700DF050F8E9
:10528800A36811AA294602EB8A0220465B6A98475E
:105298000546A0684FF0FF324FF0FF3300F543702A
:1052A8000CF0E5FF0021A0680DF016F82AE700BF12
:1052B800CA710100DE7101003F7201007A820100AB
:1052C800FC7101002B7201001E7501006372010060
:1052D800022210B5836804461A7583689B6CBBB9B3
:1052E8000CF0A4FF8368D3F87832DB040BD50321D4
:1052F800084B094A0DF05AFBA0686FF4805100F57D
:105308001E700CF0A9FF2046BDE8104001F0B8B8A7
:1053180010BD00BF7E7201009C6E01002DE9F04FA8
:10532800044680680121B1B000F51E700CF089FFB9
:10533800A3681B7D022B20D100230993A368606812
:105348009E6C03681D6909AB0EB310221BA9A84700
:10535800099B93B10121A0680CF0BEFF2046099A71
:105368001BA9B0470021A0680CF0B6FFA3689B6C8E
:10537800002BE3D12046FFF7ABFF6FF00101A068D7
:1053880000F51E7031B0BDE8F04F0CF065BF01228A
:105398000DF12301A847099B002BEED09DF923109E
:1053A8009DF823300029A268C8DB517D032900F24B
:1053B8000E83DFE811F004008D02A5020C030D2B0B
:1053C80056D00A2B32D0B2F87812092B6FF3CA01E3
:1053D800A2F87812A06860D013D8002BAED0082BA2
:1053E80000F0DC818C495A1CD2B28A5CA06812F0A9
:1053F800970F00F0DF8101210CF079FF9DF8231051
:1054080000E11B2B46D07F2BECD1D0F874329D07DE
:1054180094D501210CF06BFFA368D3F874321907F7
:1054280000F1C48120460DF00AFB87E7D2F8781214
:10543800C1F3C70129B1D2F87812C1F3C7010A290B
:10544800D0D1B2F8781263F3CA01A2F87812A5682D
:10545800B5F85010C1B928460CF049FFE0680DF0C6
:1054680021FD6069FFF774FD2046FFF731FF65E70E
:10547800D2F87812C1F3C7010029E2D0D2F8781225
:10548800C1F3C7010D29DBE72046FFF7BDFDC5F8CD
:105498002403E9E70123437550E7D0F874329A07EB
:1054A8007FF54CAF01210CF022FFA068B0F8503016
:1054B800FF2B3FF443AF0025B0F8522000F156010E
:1054C80000F5AB700FF081FEA3681BA9B3F852205A
:1054D8000BA8134483F85651A268142302F5AB7243
:1054E80000F04AFC0B9914293FF628AF30AB03EBC8
:1054F800810343F8545CA368DFF820A1B3F8522075
:10550800134493F855301AF8033019B11B0753D4D4
:10551800012950D100250A950A9B30AA02EB830382
:1055280053F854BC002658460CF0B9FE374681465D
:10553800B04604964146284616AA00F0F9FC0346F0
:10554800002845D1012ED4F8088069D10A9B30AAD9
:1055580002EB830353F8540C0CF0A1FE39460646BF
:1055680008F11802284600F0E3FC056828460CF00C
:1055780096FE864205D0821B92B22046A9190DF0EC
:105588005CFAA068B0F85230034493F856301AF821
:10559800031011F0080139D1D0F87432DF0730D583
:1055A8000CF0AFFE2021204600F032FF0121A06858
:1055B8000CF0A7FEC2E6013900200CAB0093019065
:1055C8000AAB1BAA0DF07AF805460028A4D1B5E667
:1055D8001B684A465946184603930FF097FC68B96A
:1055E800039B1846FBF799FE049B834238BF03468A
:1055F8009BB2002E08BF47460493013608F1010804
:1056080098E72021204600F003FF97E60121204675
:105618000DF0EEF892E600BF3B9801003C980100BF
:1056280005907FF68BAE0A9A30AB03EB820252F8F4
:10563800543CB946184603930CF031FE059B06907E
:10564800A8F840300596A26849462846183200F066
:105658006FFC039BD0F800B009F101094BB1BBF115
:10566800000F06D019465846069A0FF04FFC00283E
:10567800E9D1D4F808A0BBF1000F4DD1AAF840B089
:10568800059B013B0593DED16069FFF761FC20466D
:1056980000F0F6FE0A9B30AA02EB830353F8540C81
:1056A8000CF0FDFD394611AA8046284600F040FC62
:1056B80007F101090746A0683968FF2200F5AB70B9
:1056C8000FF036FC3B684FF6FF77BA46039349461E
:1056D800284616AA09F1010B00F02AFC002851D02F
:1056E8000022A168036801F2551111F801EF985CD6
:1056F800704503D110B101325245F6D1B8F1000F0F
:1057080001D0424506DBBA42A8BF3A46013E012E07
:1057180097B237D0D946DAE7AE480CF0C0FD049B03
:1057280000EB0308BAF83A301FFA88F81B1A93FB03
:10573800F8F358469BB207930CF0B1FDBAF8401045
:10574800079BA8EB0008B1FBF3F2481C03FB1211FE
:1057580089B21FFA88F8AAF8400061B906212046E4
:105768009C4B9D4ACDF800B00DF020F941462046EB
:1057780000F0DEFC84E75B4606212046974A0DF0E0
:1057880015F9F3E7002F3FF4D9AD0399A7EB080209
:10579800204692B241440DF050F9CFE5D0F874326A
:1057A8009E077FF5CBAD01210CF0A1FD20460DF041
:1057B80065F9C3E5D0F8742292077FF5BFAD013BC8
:1057C800162B3FF6BBAD01A252F823F0A9590000F1
:1057D80031580000395800002D5400009D59000030
:1057E800575800004553000045530000455300003A
:1057F800455300005F5800006758000045530000FB
:1058080091580000455300009B5800004553000084
:105818004553000045530000455300009F580000C1
:1058280045530000C958000020460DF01AF885E5D8
:1058380020460DF00DF820460CF08FFF10B9606976
:10584800FFF786FB0121A0680CF051FD0CE620460D
:105858000DF010F872E520460DF017F86EE5D0F857
:1058680074329F0603D55E4960690CF01EFDA3687B
:10587800D3F874329E0603D55A4960690CF015FDB9
:10588800204600F0FDFD59E500212046FFF766FBA4
:1058980054E50121F9E720460CF0D3FF20460CF02F
:1058A800C5FC0121A0680CF022FDA368D3F874326E
:1058B8009D067FF543AD4C4960690CF0F6FC3DE56B
:1058C800204600F003FD0121A0680CF010FD35E52D
:1058D8005B2B02D10223537530E5D2F8742290076E
:1058E80006D5622B08D14FF0FF31204600F036FC78
:1058F8000022A3685A7521E5662BF9D10121F4E746
:1059080000215175A268D2F8741289077FF516AD87
:10591800313B1B2B3FF612AD01A151F823F000BF1C
:10592800A5590000B1590000C55900009959000057
:1059380045530000455300004553000045530000FF
:1059480045530000455300004553000045530000EF
:1059580045530000455300004553000045530000DF
:105968009B5800009158000057580000315800001B
:10597800455300009D59000045530000A9590000F7
:10598800455300004553000045530000B559000039
:105998000323537520460CF05BFFCFE403235375B4
:1059A80020460CF04EFFC9E403235375A068D0F8D5
:1059B800741201F0010181F00101F9E50323537527
:1059C800A368D3F874329B077FF5B8AC2AE50023A7
:1059D80081E700BFF4660100C27201009C6E0100FD
:1059E80024580100295801001F58010010B5836888
:1059F80004461A7D012A2BD1D3F87822510408D500
:105A0800D3F87422520704D40146DA6CC0690DF049
:105A180024F9A0684FF0FF324FF0FF3300F54370D0
:105A28000CF025FC2046082100F012FC20680CF040
:105A380036FC18B1084960690CF037FC2046FFF7BE
:105A480047FCA06800F543700CF06AFC002010BD0C
:105A58006FF08500FBE700BF616C01002DE9F041A4
:105A680004468068154600F51E70002937D04FF4AB
:105A780080410CF0E6FBA3680021DD6460680368E0
:105A88009B68984700284BD12046FFF7AFFF0028B6
:105A980046D1244E244FDFF89480A06800F52F707B
:105AA8004FF0FF324FF0FF33032109F06BFC05463E
:105AB800A0684FF0FF324FF0FF3300F543709DB1FF
:105AC8000CF0D5FB20462B460121194A0CF06EFF3D
